{
  "contractName": "notas",
  "abi": [
    {
      "inputs": [],
      "stateMutability": "nonpayable",
      "type": "constructor"
    },
    {
      "anonymous": false,
      "inputs": [
        {
          "indexed": false,
          "internalType": "bytes32",
          "name": "",
          "type": "bytes32"
        }
      ],
      "name": "alumno_evaluado",
      "type": "event"
    },
    {
      "anonymous": false,
      "inputs": [
        {
          "indexed": false,
          "internalType": "string",
          "name": "",
          "type": "string"
        }
      ],
      "name": "evento_revision",
      "type": "event"
    },
    {
      "inputs": [],
      "name": "profesor",
      "outputs": [
        {
          "internalType": "address",
          "name": "",
          "type": "address"
        }
      ],
      "stateMutability": "view",
      "type": "function",
      "constant": true
    },
    {
      "inputs": [
        {
          "internalType": "string",
          "name": "_asignatura",
          "type": "string"
        },
        {
          "internalType": "string",
          "name": "_idAlumno",
          "type": "string"
        },
        {
          "internalType": "uint256",
          "name": "_nota",
          "type": "uint256"
        }
      ],
      "name": "Evaluar",
      "outputs": [],
      "stateMutability": "nonpayable",
      "type": "function"
    },
    {
      "inputs": [
        {
          "internalType": "string",
          "name": "_asignatura",
          "type": "string"
        },
        {
          "internalType": "string",
          "name": "_idAlumno",
          "type": "string"
        }
      ],
      "name": "VerNotas",
      "outputs": [
        {
          "internalType": "uint256",
          "name": "",
          "type": "uint256"
        }
      ],
      "stateMutability": "view",
      "type": "function",
      "constant": true
    },
    {
      "inputs": [
        {
          "internalType": "string",
          "name": "_asignatura",
          "type": "string"
        },
        {
          "internalType": "string",
          "name": "_idAlumno",
          "type": "string"
        }
      ],
      "name": "Revision",
      "outputs": [],
      "stateMutability": "nonpayable",
      "type": "function"
    },
    {
      "inputs": [
        {
          "internalType": "string",
          "name": "_asignatura",
          "type": "string"
        }
      ],
      "name": "VerRevisiones",
      "outputs": [
        {
          "internalType": "string[]",
          "name": "",
          "type": "string[]"
        }
      ],
      "stateMutability": "view",
      "type": "function",
      "constant": true
    }
  ],
  "bytecode": "0x608060405234801561001057600080fd5b50336000806101000a81548173ffffffffffffffffffffffffffffffffffffffff021916908373ffffffffffffffffffffffffffffffffffffffff160217905550610b4e806100606000396000f3fe608060405234801561001057600080fd5b50600436106100575760003560e01c8063303622241461005c578063593cbcf01461008c57806395bb498f146100a8578063df096576146100d8578063df3bba9f146100f6575b600080fd5b610076600480360381019061007191906105c3565b610112565b6040516100839190610904565b60405180910390f35b6100a660048036038101906100a19190610670565b6102a9565b005b6100c260048036038101906100bd9190610604565b6103bb565b6040516100cf9190610983565b60405180910390f35b6100e0610406565b6040516100ed91906108e9565b60405180910390f35b610110600480360381019061010b9190610604565b61042a565b005b60603360008054906101000a900473ffffffffffffffffffffffffffffffffffffffff1673ffffffffffffffffffffffffffffffffffffffff168173ffffffffffffffffffffffffffffffffffffffff16146101a3576040517f08c379a000000000000000000000000000000000000000000000000000000000815260040161019a90610963565b60405180910390fd5b6002836040516101b391906108ae565b9081526020016040518091039020805480602002602001604051908101604052809291908181526020016000905b8282101561029d578382906000526020600020018054600181600116156101000203166002900480601f0160208091040260200160405190810160405280929190818152602001828054600181600116156101000203166002900480156102895780601f1061025e57610100808354040283529160200191610289565b820191906000526020600020905b81548152906001019060200180831161026c57829003601f168201915b5050505050815260200190600101906101e1565b50505050915050919050565b3360008054906101000a900473ffffffffffffffffffffffffffffffffffffffff1673ffffffffffffffffffffffffffffffffffffffff168173ffffffffffffffffffffffffffffffffffffffff1614610338576040517f08c379a000000000000000000000000000000000000000000000000000000000815260040161032f90610963565b60405180910390fd5b6000848460405160200161034d9291906108c5565b6040516020818303038152906040528051906020012090508260016000838152602001908152602001600020819055507f9129eeeb684507aca017f10030b70e5bf86d129f417fcc5840348a957eb12cee816040516103ac9190610926565b60405180910390a15050505050565b60008083836040516020016103d19291906108c5565b604051602081830303815290604052805190602001209050600160008281526020019081526020016000205491505092915050565b60008054906101000a900473ffffffffffffffffffffffffffffffffffffffff1681565b60028260405161043a91906108ae565b9081526020016040518091039020819080600181540180825580915050600190039060005260206000200160009091909190915090805190602001906104819291906104bd565b507fafd73f39162aa4c0421f362f3a3d26f44b23c73253256cfc1c68794b0973e0a0816040516104b19190610941565b60405180910390a15050565b828054600181600116156101000203166002900490600052602060002090601f016020900481019282601f106104fe57805160ff191683800117855561052c565b8280016001018555821561052c579182015b8281111561052b578251825591602001919060010190610510565b5b509050610539919061053d565b5090565b5b8082111561055657600081600090555060010161053e565b5090565b600082601f83011261056b57600080fd5b813561057e610579826109cb565b61099e565b9150808252602083016020830185838301111561059a57600080fd5b6105a5838284610aae565b50505092915050565b6000813590506105bd81610b01565b92915050565b6000602082840312156105d557600080fd5b600082013567ffffffffffffffff8111156105ef57600080fd5b6105fb8482850161055a565b91505092915050565b6000806040838503121561061757600080fd5b600083013567ffffffffffffffff81111561063157600080fd5b61063d8582860161055a565b925050602083013567ffffffffffffffff81111561065a57600080fd5b6106668582860161055a565b9150509250929050565b60008060006060848603121561068557600080fd5b600084013567ffffffffffffffff81111561069f57600080fd5b6106ab8682870161055a565b935050602084013567ffffffffffffffff8111156106c857600080fd5b6106d48682870161055a565b92505060406106e5868287016105ae565b9150509250925092565b60006106fb8383610796565b905092915050565b61070c81610a68565b82525050565b600061071d82610a07565b6107278185610a2a565b935083602082028501610739856109f7565b8060005b85811015610775578484038952815161075685826106ef565b945061076183610a1d565b925060208a0199505060018101905061073d565b50829750879550505050505092915050565b61079081610a7a565b82525050565b60006107a182610a12565b6107ab8185610a3b565b93506107bb818560208601610abd565b6107c481610af0565b840191505092915050565b60006107da82610a12565b6107e48185610a4c565b93506107f4818560208601610abd565b6107fd81610af0565b840191505092915050565b600061081382610a12565b61081d8185610a5d565b935061082d818560208601610abd565b80840191505092915050565b6000610846602d83610a4c565b91507f4e6f207469656e6573207065726d69736f73207061726120656a65637574617260008301527f20657374612066756e63696f6e000000000000000000000000000000000000006020830152604082019050919050565b6108a881610aa4565b82525050565b60006108ba8284610808565b915081905092915050565b60006108d18285610808565b91506108dd8284610808565b91508190509392505050565b60006020820190506108fe6000830184610703565b92915050565b6000602082019050818103600083015261091e8184610712565b905092915050565b600060208201905061093b6000830184610787565b92915050565b6000602082019050818103600083015261095b81846107cf565b905092915050565b6000602082019050818103600083015261097c81610839565b9050919050565b6000602082019050610998600083018461089f565b92915050565b6000604051905081810181811067ffffffffffffffff821117156109c157600080fd5b8060405250919050565b600067ffffffffffffffff8211156109e257600080fd5b601f19601f8301169050602081019050919050565b6000819050602082019050919050565b600081519050919050565b600081519050919050565b6000602082019050919050565b600082825260208201905092915050565b600082825260208201905092915050565b600082825260208201905092915050565b600081905092915050565b6000610a7382610a84565b9050919050565b6000819050919050565b600073ffffffffffffffffffffffffffffffffffffffff82169050919050565b6000819050919050565b82818337600083830152505050565b60005b83811015610adb578082015181840152602081019050610ac0565b83811115610aea576000848401525b50505050565b6000601f19601f8301169050919050565b610b0a81610aa4565b8114610b1557600080fd5b5056fea2646970667358221220b3abf5583783b05cb01e7cf5560836a2c12159cd12e60026873b17f62a1b591664736f6c634300060c0033",
  "immutableReferences": {},
  "source": "// SPDX-License-Identifier: MIT\n//pragma solidity ^0.8.0;\npragma solidity >=0.4.4 < 0.7.0;\npragma experimental ABIEncoderV2;\n\n//-------------------------------------\n// ALUMNO   /     ID     /     NOTA\n//-------------------------------------\n// Marcos  |    77755N   |       5\n// Joan    |    12345X   |       9\n// Maria   |    02468T   |       2\n// Martha  |    13579U   |       3\n// Alba    |    98765Z   |       5\n\ncontract notas {\n    // Direccion del profesor\n    address public profesor;\n\n    //constructor\n    constructor() public {\n        profesor = msg.sender;\n    }\n\n    // Mapping para relacionar el hash de la identidad del alumno con su nota del examen\n    mapping (bytes32 => uint) Notas;\n\n    // mapping de los alumnos que pidan revisiones de examen para una asignatura\n    mapping (string => string[]) revisiones;\n\n    // eventos\n    event alumno_evaluado(bytes32);\n    event evento_revision(string);\n\n    // funcion para evaluar a un alumno\n    function Evaluar(string memory _asignatura, string memory _idAlumno, uint _nota) public UnicamenteProfesor(msg.sender){\n        // Hash de la identificacion del alumno\n        bytes32 hash_Alumno = keccak256(abi.encodePacked(_asignatura, _idAlumno));\n        //Relacion entre el hash de la identificacio del alumno y su nota\n        Notas[hash_Alumno] = _nota;\n        // Emision del evento\n        emit alumno_evaluado(hash_Alumno);\n    }\n\n    modifier UnicamenteProfesor(address _direccion) {\n        require(_direccion == profesor, \"No tienes permisos para ejecutar esta funcion\");\n        _;\n    }\n\n    // Funcion para ver las notas del alumno\n    function VerNotas(string memory _asignatura, string memory _idAlumno) public view returns(uint) {\n        // Hash de la identificacion del alumno\n        bytes32 hash_Alumno = keccak256(abi.encodePacked(_asignatura, _idAlumno));\n        //Devolver la nota del alumno\n        return Notas[hash_Alumno];\n    }\n\n    //Funcion para padir una revision del examen\n    function Revision(string memory _asignatura, string memory _idAlumno) public {\n        // Almacenamiento de la identidad del alumno en un array\n        revisiones[_asignatura].push(_idAlumno);\n        // emiion del evento\n        emit evento_revision(_idAlumno);\n    }\n\n    //Funcion para ver los alumnos que a solicitado revision de examen\n    function VerRevisiones(string memory _asignatura) public view UnicamenteProfesor(msg.sender) returns(string [] memory) {\n        // Devolver las identidades de los alumnos\n        return revisiones[_asignatura];\n    }\n}",
  "sourcePath": "/home/ograciano/git/BlockchainDapps/Bloque 2 Truffle/notas2/contracts/notas.sol",
  "compiler": {
    "name": "solc",
    "version": "0.6.12+commit.27d51765.Emscripten.clang"
  },
  "schemaVersion": "3.4.4",
  "updatedAt": "2022-02-02T18:09:44.171Z",
  "networkType": "ethereum",
  "devdoc": {
    "kind": "dev",
    "methods": {},
    "version": 1
  },
  "userdoc": {
    "kind": "user",
    "methods": {},
    "version": 1
  }
}