{
  "contractName": "notas",
  "abi": [
    {
      "inputs": [],
      "stateMutability": "nonpayable",
      "type": "constructor"
    },
    {
      "anonymous": false,
      "inputs": [
        {
          "indexed": false,
          "internalType": "bytes32",
          "name": "",
          "type": "bytes32"
        }
      ],
      "name": "alumno_evaluado",
      "type": "event"
    },
    {
      "anonymous": false,
      "inputs": [
        {
          "indexed": false,
          "internalType": "string",
          "name": "",
          "type": "string"
        }
      ],
      "name": "evento_revision",
      "type": "event"
    },
    {
      "inputs": [],
      "name": "profesor",
      "outputs": [
        {
          "internalType": "address",
          "name": "",
          "type": "address"
        }
      ],
      "stateMutability": "view",
      "type": "function",
      "constant": true
    },
    {
      "inputs": [
        {
          "internalType": "string",
          "name": "_idAlumno",
          "type": "string"
        },
        {
          "internalType": "uint256",
          "name": "_nota",
          "type": "uint256"
        }
      ],
      "name": "Evaluar",
      "outputs": [],
      "stateMutability": "nonpayable",
      "type": "function"
    },
    {
      "inputs": [
        {
          "internalType": "string",
          "name": "_idAlumno",
          "type": "string"
        }
      ],
      "name": "VerNotas",
      "outputs": [
        {
          "internalType": "uint256",
          "name": "",
          "type": "uint256"
        }
      ],
      "stateMutability": "view",
      "type": "function",
      "constant": true
    },
    {
      "inputs": [
        {
          "internalType": "string",
          "name": "_idAlumno",
          "type": "string"
        }
      ],
      "name": "Revision",
      "outputs": [],
      "stateMutability": "nonpayable",
      "type": "function"
    },
    {
      "inputs": [],
      "name": "VerRevisiones",
      "outputs": [
        {
          "internalType": "string[]",
          "name": "",
          "type": "string[]"
        }
      ],
      "stateMutability": "view",
      "type": "function",
      "constant": true
    }
  ],
  "bytecode": "0x608060405234801561001057600080fd5b50336000806101000a81548173ffffffffffffffffffffffffffffffffffffffff021916908373ffffffffffffffffffffffffffffffffffffffff160217905550610a40806100606000396000f3fe608060405234801561001057600080fd5b50600436106100575760003560e01c8063040d9f601461005c5780632cd22cd81461007857806333731af614610094578063df096576146100c4578063f22044e6146100e2575b600080fd5b610076600480360381019061007191906105b1565b610100565b005b610092600480360381019061008d9190610570565b61020f565b005b6100ae60048036038101906100a99190610570565b610285565b6040516100bb9190610875565b60405180910390f35b6100cc6102cd565b6040516100d991906107db565b60405180910390f35b6100ea6102f1565b6040516100f791906107f6565b60405180910390f35b3360008054906101000a900473ffffffffffffffffffffffffffffffffffffffff1673ffffffffffffffffffffffffffffffffffffffff168173ffffffffffffffffffffffffffffffffffffffff161461018f576040517f08c379a000000000000000000000000000000000000000000000000000000000815260040161018690610855565b60405180910390fd5b6000836040516020016101a291906107c4565b6040516020818303038152906040528051906020012090508260016000838152602001908152602001600020819055507f9129eeeb684507aca017f10030b70e5bf86d129f417fcc5840348a957eb12cee816040516102019190610818565b60405180910390a150505050565b60028190806001815401808255809150506001900390600052602060002001600090919091909150908051906020019061024a92919061046a565b507fafd73f39162aa4c0421f362f3a3d26f44b23c73253256cfc1c68794b0973e0a08160405161027a9190610833565b60405180910390a150565b6000808260405160200161029991906107c4565b6040516020818303038152906040528051906020012090506001600082815260200190815260200160002054915050919050565b60008054906101000a900473ffffffffffffffffffffffffffffffffffffffff1681565b60603360008054906101000a900473ffffffffffffffffffffffffffffffffffffffff1673ffffffffffffffffffffffffffffffffffffffff168173ffffffffffffffffffffffffffffffffffffffff1614610382576040517f08c379a000000000000000000000000000000000000000000000000000000000815260040161037990610855565b60405180910390fd5b6002805480602002602001604051908101604052809291908181526020016000905b82821015610460578382906000526020600020018054600181600116156101000203166002900480601f01602080910402602001604051908101604052809291908181526020018280546001816001161561010002031660029004801561044c5780601f106104215761010080835404028352916020019161044c565b820191906000526020600020905b81548152906001019060200180831161042f57829003601f168201915b5050505050815260200190600101906103a4565b5050505091505090565b828054600181600116156101000203166002900490600052602060002090601f016020900481019282601f106104ab57805160ff19168380011785556104d9565b828001600101855582156104d9579182015b828111156104d85782518255916020019190600101906104bd565b5b5090506104e691906104ea565b5090565b5b808211156105035760008160009055506001016104eb565b5090565b600082601f83011261051857600080fd5b813561052b610526826108bd565b610890565b9150808252602083016020830185838301111561054757600080fd5b6105528382846109a0565b50505092915050565b60008135905061056a816109f3565b92915050565b60006020828403121561058257600080fd5b600082013567ffffffffffffffff81111561059c57600080fd5b6105a884828501610507565b91505092915050565b600080604083850312156105c457600080fd5b600083013567ffffffffffffffff8111156105de57600080fd5b6105ea85828601610507565b92505060206105fb8582860161055b565b9150509250929050565b600061061183836106ac565b905092915050565b6106228161095a565b82525050565b6000610633826108f9565b61063d818561091c565b93508360208202850161064f856108e9565b8060005b8581101561068b578484038952815161066c8582610605565b94506106778361090f565b925060208a01995050600181019050610653565b50829750879550505050505092915050565b6106a68161096c565b82525050565b60006106b782610904565b6106c1818561092d565b93506106d18185602086016109af565b6106da816109e2565b840191505092915050565b60006106f082610904565b6106fa818561093e565b935061070a8185602086016109af565b610713816109e2565b840191505092915050565b600061072982610904565b610733818561094f565b93506107438185602086016109af565b80840191505092915050565b600061075c602d8361093e565b91507f4e6f207469656e6573207065726d69736f73207061726120656a65637574617260008301527f20657374612066756e63696f6e000000000000000000000000000000000000006020830152604082019050919050565b6107be81610996565b82525050565b60006107d0828461071e565b915081905092915050565b60006020820190506107f06000830184610619565b92915050565b600060208201905081810360008301526108108184610628565b905092915050565b600060208201905061082d600083018461069d565b92915050565b6000602082019050818103600083015261084d81846106e5565b905092915050565b6000602082019050818103600083015261086e8161074f565b9050919050565b600060208201905061088a60008301846107b5565b92915050565b6000604051905081810181811067ffffffffffffffff821117156108b357600080fd5b8060405250919050565b600067ffffffffffffffff8211156108d457600080fd5b601f19601f8301169050602081019050919050565b6000819050602082019050919050565b600081519050919050565b600081519050919050565b6000602082019050919050565b600082825260208201905092915050565b600082825260208201905092915050565b600082825260208201905092915050565b600081905092915050565b600061096582610976565b9050919050565b6000819050919050565b600073ffffffffffffffffffffffffffffffffffffffff82169050919050565b6000819050919050565b82818337600083830152505050565b60005b838110156109cd5780820151818401526020810190506109b2565b838111156109dc576000848401525b50505050565b6000601f19601f8301169050919050565b6109fc81610996565b8114610a0757600080fd5b5056fea2646970667358221220131acf816b63d5233825184d0658b51e82b04b9372fe7613bd406c9f298d69f764736f6c634300060c0033",
  "immutableReferences": {},
  "source": "// SPDX-License-Identifier: MIT\n//pragma solidity ^0.8.0;\npragma solidity >=0.4.4 < 0.7.0;\npragma experimental ABIEncoderV2;\n\n//-------------------------------------\n// ALUMNO   /     ID     /     NOTA\n//-------------------------------------\n// Marcos  |    77755N   |       5\n// Joan    |    12345X   |       9\n// Maria   |    02468T   |       2\n// Martha  |    13579U   |       3\n// Alba    |    98765Z   |       5\n\ncontract notas {\n    // Direccion del profesor\n    address public profesor;\n\n    //constructor\n    constructor() public {\n        profesor = msg.sender;\n    }\n\n    // Mapping para relacionar el hash de la identidad del alumno con su nota del examen\n    mapping (bytes32 => uint) Notas;\n\n    // Array de los alumnos que pidan revisiones de examen\n    string [] revisiones;\n\n    // eventos\n    event alumno_evaluado(bytes32);\n    event evento_revision(string);\n\n    // funcion para evaluar a un alumno\n    function Evaluar( string memory _idAlumno, uint _nota) public UnicamenteProfesor(msg.sender){\n        // Hash de la identificacion del alumno\n        bytes32 hash_Alumno = keccak256(abi.encodePacked(_idAlumno));\n        //Relacion entre el hash de la identificacio del alumno y su nota\n        Notas[hash_Alumno] = _nota;\n        // Emision del evento\n        emit alumno_evaluado(hash_Alumno);\n    }\n\n    modifier UnicamenteProfesor(address _direccion) {\n        require(_direccion == profesor, \"No tienes permisos para ejecutar esta funcion\");\n        _;\n    }\n\n    // Funcion para ver las notas del alumno\n    function VerNotas(string memory _idAlumno) public view returns(uint) {\n        // Hash de la identificacion del alumno\n        bytes32 hash_Alumno = keccak256(abi.encodePacked(_idAlumno));\n        //Devolver la nota del alumno\n        return Notas[hash_Alumno];\n    }\n\n    //Funcion para padir una revision del examen\n    function Revision(string memory _idAlumno) public {\n        // Almacenamiento de la identidad del alumno en un array\n        revisiones.push(_idAlumno);\n        // emiion del evento\n        emit evento_revision(_idAlumno);\n    }\n\n    //Funcion para ver los alumnos que a solicitado revision de examen\n    function VerRevisiones() public view UnicamenteProfesor(msg.sender) returns(string [] memory) {\n        // Devolver las identidades de los alumnos\n        return revisiones;\n    }\n}",
  "sourcePath": "/home/ograciano/git/BlockchainDapps/Bloque 2 Truffle/notas/contracts/notas.sol",
  "compiler": {
    "name": "solc",
    "version": "0.6.12+commit.27d51765.Emscripten.clang"
  },
  "schemaVersion": "3.4.4",
  "updatedAt": "2022-02-02T15:08:57.408Z",
  "networkType": "ethereum",
  "devdoc": {
    "kind": "dev",
    "methods": {},
    "version": 1
  },
  "userdoc": {
    "kind": "user",
    "methods": {},
    "version": 1
  }
}