{
  "contractName": "main",
  "abi": [
    {
      "inputs": [],
      "stateMutability": "nonpayable",
      "type": "constructor"
    },
    {
      "inputs": [],
      "name": "contrato",
      "outputs": [
        {
          "internalType": "address",
          "name": "",
          "type": "address"
        }
      ],
      "stateMutability": "view",
      "type": "function",
      "constant": true
    },
    {
      "inputs": [],
      "name": "owner",
      "outputs": [
        {
          "internalType": "address",
          "name": "",
          "type": "address"
        }
      ],
      "stateMutability": "view",
      "type": "function",
      "constant": true
    },
    {
      "inputs": [],
      "name": "getOwner",
      "outputs": [
        {
          "internalType": "address",
          "name": "",
          "type": "address"
        }
      ],
      "stateMutability": "view",
      "type": "function",
      "constant": true
    },
    {
      "inputs": [],
      "name": "getContract",
      "outputs": [
        {
          "internalType": "address",
          "name": "",
          "type": "address"
        }
      ],
      "stateMutability": "view",
      "type": "function",
      "constant": true
    },
    {
      "inputs": [
        {
          "internalType": "address",
          "name": "_destinatario",
          "type": "address"
        },
        {
          "internalType": "uint256",
          "name": "_numTokens",
          "type": "uint256"
        }
      ],
      "name": "send_tokens",
      "outputs": [],
      "stateMutability": "payable",
      "type": "function",
      "payable": true
    },
    {
      "inputs": [
        {
          "internalType": "uint256",
          "name": "_numTokens",
          "type": "uint256"
        }
      ],
      "name": "GeneraTokens",
      "outputs": [],
      "stateMutability": "nonpayable",
      "type": "function"
    },
    {
      "inputs": [
        {
          "internalType": "address",
          "name": "_direccion",
          "type": "address"
        }
      ],
      "name": "balance_direccion",
      "outputs": [
        {
          "internalType": "uint256",
          "name": "",
          "type": "uint256"
        }
      ],
      "stateMutability": "view",
      "type": "function",
      "constant": true
    },
    {
      "inputs": [],
      "name": "balance_total",
      "outputs": [
        {
          "internalType": "uint256",
          "name": "",
          "type": "uint256"
        }
      ],
      "stateMutability": "view",
      "type": "function",
      "constant": true
    }
  ],
  "bytecode": "0x608060405234801561001057600080fd5b506127106040516100209061010d565b80828152602001915050604051809103906000f080158015610046573d6000803e3d6000fd5b506000806101000a81548173ffffffffffffffffffffffffffffffffffffffff021916908373ffffffffffffffffffffffffffffffffffffffff16021790555033600160006101000a81548173ffffffffffffffffffffffffffffffffffffffff021916908373ffffffffffffffffffffffffffffffffffffffff16021790555030600260006101000a81548173ffffffffffffffffffffffffffffffffffffffff021916908373ffffffffffffffffffffffffffffffffffffffff16021790555061011a565b61108080610b1983390190565b6109f0806101296000396000f3fe60806040526004361061007b5760003560e01c8063958f85bd1161004e578063958f85bd14610194578063a7872547146101eb578063c473de2b14610239578063e1a01e671461029e5761007b565b80631246f6e214610080578063531e9236146100bb578063893d20e8146100e65780638da5cb5b1461013d575b600080fd5b34801561008c57600080fd5b506100b9600480360360208110156100a357600080fd5b81019080803590602001909291905050506102f5565b005b3480156100c757600080fd5b506100d061042a565b6040518082815260200191505060405180910390f35b3480156100f257600080fd5b506100fb61052c565b604051808273ffffffffffffffffffffffffffffffffffffffff1673ffffffffffffffffffffffffffffffffffffffff16815260200191505060405180910390f35b34801561014957600080fd5b50610152610556565b604051808273ffffffffffffffffffffffffffffffffffffffff1673ffffffffffffffffffffffffffffffffffffffff16815260200191505060405180910390f35b3480156101a057600080fd5b506101a961057c565b604051808273ffffffffffffffffffffffffffffffffffffffff1673ffffffffffffffffffffffffffffffffffffffff16815260200191505060405180910390f35b6102376004803603604081101561020157600080fd5b81019080803573ffffffffffffffffffffffffffffffffffffffff169060200190929190803590602001909291905050506105a6565b005b34801561024557600080fd5b506102886004803603602081101561025c57600080fd5b81019080803573ffffffffffffffffffffffffffffffffffffffff169060200190929190505050610821565b6040518082815260200191505060405180910390f35b3480156102aa57600080fd5b506102b3610903565b604051808273ffffffffffffffffffffffffffffffffffffffff1673ffffffffffffffffffffffffffffffffffffffff16815260200191505060405180910390f35b600160009054906101000a900473ffffffffffffffffffffffffffffffffffffffff1673ffffffffffffffffffffffffffffffffffffffff163373ffffffffffffffffffffffffffffffffffffffff161461039b576040517f08c379a000000000000000000000000000000000000000000000000000000000815260040180806020018281038252602d815260200180610965602d913960400191505060405180910390fd5b6000809054906101000a900473ffffffffffffffffffffffffffffffffffffffff1673ffffffffffffffffffffffffffffffffffffffff16631d43cc98826040518263ffffffff1660e01b815260040180828152602001915050600060405180830381600087803b15801561040f57600080fd5b505af1158015610423573d6000803e3d6000fd5b5050505050565b60008060009054906101000a900473ffffffffffffffffffffffffffffffffffffffff1673ffffffffffffffffffffffffffffffffffffffff166370a08231600260009054906101000a900473ffffffffffffffffffffffffffffffffffffffff166040518263ffffffff1660e01b8152600401808273ffffffffffffffffffffffffffffffffffffffff1673ffffffffffffffffffffffffffffffffffffffff16815260200191505060206040518083038186803b1580156104ec57600080fd5b505afa158015610500573d6000803e3d6000fd5b505050506040513d602081101561051657600080fd5b8101908080519060200190929190505050905090565b6000600160009054906101000a900473ffffffffffffffffffffffffffffffffffffffff16905090565b600160009054906101000a900473ffffffffffffffffffffffffffffffffffffffff1681565b6000600260009054906101000a900473ffffffffffffffffffffffffffffffffffffffff16905090565b600a811115610600576040517f08c379a000000000000000000000000000000000000000000000000000000000815260040180806020018281038252602781526020018061093e6027913960400191505060405180910390fd5b600061060b82610929565b905080341015610666576040517f08c379a00000000000000000000000000000000000000000000000000000000081526004018080602001828103825260298152602001806109926029913960400191505060405180910390fd5b600081340390503373ffffffffffffffffffffffffffffffffffffffff166108fc829081150290604051600060405180830381858888f193505050501580156106b3573d6000803e3d6000fd5b5060006106be61042a565b905080841115610736576040517f08c379a00000000000000000000000000000000000000000000000000000000081526004018080602001828103825260208152602001807f436f6d70726120756e206e756d65726f206d656e6f7220646520746f6b656e7381525060200191505060405180910390fd5b6000809054906101000a900473ffffffffffffffffffffffffffffffffffffffff1673ffffffffffffffffffffffffffffffffffffffff1663a9059cbb86866040518363ffffffff1660e01b8152600401808373ffffffffffffffffffffffffffffffffffffffff1673ffffffffffffffffffffffffffffffffffffffff16815260200182815260200192505050602060405180830381600087803b1580156107de57600080fd5b505af11580156107f2573d6000803e3d6000fd5b505050506040513d602081101561080857600080fd5b8101908080519060200190929190505050505050505050565b60008060009054906101000a900473ffffffffffffffffffffffffffffffffffffffff1673ffffffffffffffffffffffffffffffffffffffff166370a08231836040518263ffffffff1660e01b8152600401808273ffffffffffffffffffffffffffffffffffffffff1673ffffffffffffffffffffffffffffffffffffffff16815260200191505060206040518083038186803b1580156108c157600080fd5b505afa1580156108d5573d6000803e3d6000fd5b505050506040513d60208110156108eb57600080fd5b81019080805190602001909291905050509050919050565b600260009054906101000a900473ffffffffffffffffffffffffffffffffffffffff1681565b6000670de0b6b3a76400008202905091905056fe4c612063616e746964616420646520746f6b656e732065732064656d61736961646f20616c74614e6f207469656e6573207065726d69736f73207061726120656a65637574617220657374612066756e63696f6e436f6d707261206d656e6f7320746f6b656e73206f207061676120636f6e206d617320657468657273a264697066735822122012f4dd0c4e19b12922b2ffb83f8d6f99b733c8e8426e4abf06c396422755d88d64736f6c63430006080033608060405234801561001057600080fd5b506040516110803803806110808339818101604052602081101561003357600080fd5b8101908080519060200190929190505050806002819055506002546000803373ffffffffffffffffffffffffffffffffffffffff1673ffffffffffffffffffffffffffffffffffffffff1681526020019081526020016000208190555050610fe0806100a06000396000f3fe608060405234801561001057600080fd5b506004361061009e5760003560e01c806370a082311161006657806370a082311461021c57806375247a581461027457806395d89b41146102da578063a9059cbb1461035d578063dd62ed3e146103c35761009e565b806306fdde03146100a357806318160ddd146101265780631d43cc981461014457806323b872dd14610172578063313ce567146101f8575b600080fd5b6100ab61043b565b6040518080602001828103825283818151815260200191508051906020019080838360005b838110156100eb5780820151818401526020810190506100d0565b50505050905090810190601f1680156101185780820380516001836020036101000a031916815260200191505b509250505060405180910390f35b61012e610474565b6040518082815260200191505060405180910390f35b6101706004803603602081101561015a57600080fd5b810190808035906020019092919050505061047e565b005b6101de6004803603606081101561018857600080fd5b81019080803573ffffffffffffffffffffffffffffffffffffffff169060200190929190803573ffffffffffffffffffffffffffffffffffffffff169060200190929190803590602001909291905050506104dd565b604051808215151515815260200191505060405180910390f35b6102006108f0565b604051808260ff1660ff16815260200191505060405180910390f35b61025e6004803603602081101561023257600080fd5b81019080803573ffffffffffffffffffffffffffffffffffffffff1690602001909291905050506108f5565b6040518082815260200191505060405180910390f35b6102c06004803603604081101561028a57600080fd5b81019080803573ffffffffffffffffffffffffffffffffffffffff1690602001909291908035906020019092919050505061093d565b604051808215151515815260200191505060405180910390f35b6102e2610ab4565b6040518080602001828103825283818151815260200191508051906020019080838360005b83811015610322578082015181840152602081019050610307565b50505050905090810190601f16801561034f5780820380516001836020036101000a031916815260200191505b509250505060405180910390f35b6103a96004803603604081101561037357600080fd5b81019080803573ffffffffffffffffffffffffffffffffffffffff16906020019092919080359060200190929190505050610aed565b604051808215151515815260200191505060405180910390f35b610425600480360360408110156103d957600080fd5b81019080803573ffffffffffffffffffffffffffffffffffffffff169060200190929190803573ffffffffffffffffffffffffffffffffffffffff169060200190929190505050610d1b565b6040518082815260200191505060405180910390f35b6040518060400160405280600981526020017f455243323044417070000000000000000000000000000000000000000000000081525081565b6000600254905090565b80600260008282540192505081905550806000803373ffffffffffffffffffffffffffffffffffffffff1673ffffffffffffffffffffffffffffffffffffffff1681526020019081526020016000206000828254019250508190555050565b60008060008573ffffffffffffffffffffffffffffffffffffffff1673ffffffffffffffffffffffffffffffffffffffff16815260200190815260200160002054821115610576576040517f08c379a000000000000000000000000000000000000000000000000000000000815260040180806020018281038252602c815260200180610f3e602c913960400191505060405180910390fd5b600160008573ffffffffffffffffffffffffffffffffffffffff1673ffffffffffffffffffffffffffffffffffffffff16815260200190815260200160002060003373ffffffffffffffffffffffffffffffffffffffff1673ffffffffffffffffffffffffffffffffffffffff1681526020019081526020016000205482111561064b576040517f08c379a0000000000000000000000000000000000000000000000000000000008152600401808060200182810382526065815260200180610ed96065913960800191505060405180910390fd5b61069c826000808773ffffffffffffffffffffffffffffffffffffffff1673ffffffffffffffffffffffffffffffffffffffff16815260200190815260200160002054610da290919063ffffffff16565b6000808673ffffffffffffffffffffffffffffffffffffffff1673ffffffffffffffffffffffffffffffffffffffff1681526020019081526020016000208190555061076d82600160008773ffffffffffffffffffffffffffffffffffffffff1673ffffffffffffffffffffffffffffffffffffffff16815260200190815260200160002060003373ffffffffffffffffffffffffffffffffffffffff1673ffffffffffffffffffffffffffffffffffffffff16815260200190815260200160002054610da290919063ffffffff16565b600160008673ffffffffffffffffffffffffffffffffffffffff1673ffffffffffffffffffffffffffffffffffffffff16815260200190815260200160002060003373ffffffffffffffffffffffffffffffffffffffff1673ffffffffffffffffffffffffffffffffffffffff1681526020019081526020016000208190555061083e826000808673ffffffffffffffffffffffffffffffffffffffff1673ffffffffffffffffffffffffffffffffffffffff16815260200190815260200160002054610e2590919063ffffffff16565b6000808573ffffffffffffffffffffffffffffffffffffffff1673ffffffffffffffffffffffffffffffffffffffff168152602001908152602001600020819055508273ffffffffffffffffffffffffffffffffffffffff168473ffffffffffffffffffffffffffffffffffffffff167fddf252ad1be2c89b69c2b068fc378daa952ba7f163c4a11628f55a4df523b3ef846040518082815260200191505060405180910390a3600190509392505050565b600281565b60008060008373ffffffffffffffffffffffffffffffffffffffff1673ffffffffffffffffffffffffffffffffffffffff168152602001908152602001600020549050919050565b60008273ffffffffffffffffffffffffffffffffffffffff163373ffffffffffffffffffffffffffffffffffffffff1614156109c4576040517f08c379a0000000000000000000000000000000000000000000000000000000008152600401808060200182810382526041815260200180610f6a6041913960600191505060405180910390fd5b81600160003373ffffffffffffffffffffffffffffffffffffffff1673ffffffffffffffffffffffffffffffffffffffff16815260200190815260200160002060008573ffffffffffffffffffffffffffffffffffffffff1673ffffffffffffffffffffffffffffffffffffffff168152602001908152602001600020819055508273ffffffffffffffffffffffffffffffffffffffff163373ffffffffffffffffffffffffffffffffffffffff167f8c5be1e5ebec7d5bd14f71427d1e84f3dd0314c0f7b2291e5b200ac8c7c3b925846040518082815260200191505060405180910390a36001905092915050565b6040518060400160405280600581526020017f454441505000000000000000000000000000000000000000000000000000000081525081565b60008060003373ffffffffffffffffffffffffffffffffffffffff1673ffffffffffffffffffffffffffffffffffffffff16815260200190815260200160002054821115610b86576040517f08c379a000000000000000000000000000000000000000000000000000000000815260040180806020018281038252602b815260200180610eae602b913960400191505060405180910390fd5b610bd7826000803373ffffffffffffffffffffffffffffffffffffffff1673ffffffffffffffffffffffffffffffffffffffff16815260200190815260200160002054610da290919063ffffffff16565b6000803373ffffffffffffffffffffffffffffffffffffffff1673ffffffffffffffffffffffffffffffffffffffff16815260200190815260200160002081905550610c6a826000808673ffffffffffffffffffffffffffffffffffffffff1673ffffffffffffffffffffffffffffffffffffffff16815260200190815260200160002054610e2590919063ffffffff16565b6000808573ffffffffffffffffffffffffffffffffffffffff1673ffffffffffffffffffffffffffffffffffffffff168152602001908152602001600020819055508273ffffffffffffffffffffffffffffffffffffffff163373ffffffffffffffffffffffffffffffffffffffff167fddf252ad1be2c89b69c2b068fc378daa952ba7f163c4a11628f55a4df523b3ef846040518082815260200191505060405180910390a36001905092915050565b6000600160008473ffffffffffffffffffffffffffffffffffffffff1673ffffffffffffffffffffffffffffffffffffffff16815260200190815260200160002060008373ffffffffffffffffffffffffffffffffffffffff1673ffffffffffffffffffffffffffffffffffffffff16815260200190815260200160002054905092915050565b600082821115610e1a576040517f08c379a000000000000000000000000000000000000000000000000000000000815260040180806020018281038252601e8152602001807f536166654d6174683a205375627472616374696f6e204f766572666c6f77000081525060200191505060405180910390fd5b818303905092915050565b600080828401905083811015610ea3576040517f08c379a000000000000000000000000000000000000000000000000000000000815260040180806020018281038252601b8152602001807f536166654d6174683a204164646974696f6e204f766572666c6f77000000000081525060200191505060405180910390fd5b809150509291505056fe45524332303a20436f6d707261206d617320746f6b656e73206f205472616e736669657265206d656e6f7345524332303a20456c20647565c3b16f206e6f206375656e746120636f6e20657374612063616e7469646164206f20656c2064656c656761646f206e6f207469656e65207065726d697469646f207472616e73666572697220657374612063616e6964616445524332303a204e6f206375656e74617320636f6e206c6f7320746f6b656e732061207472616e666572697245524332303a204e6f2073652050756564652064656c6567617220746f6b656e732061206c61206d69736d6120646972656363696f6e2064656c20647565c3b16fa26469706673582212209fe0c7ccabc52de4b18f5e1f9468941b6aac854b3d01a061b0277d6d72f73c3164736f6c63430006080033",
  "immutableReferences": {},
  "source": "// SPDX-License-Identifier: MIT\npragma solidity >= 0.4.4 <0.7.0;\n//pragma experimental ABIEncoderV2;\nimport \"./ERC20.sol\";\n\ncontract main {\n    // Instanciamos el contrato ERC20\n    ERC20Basic private token;\n\n    // Due単o del contrato\n    address public owner;\n\n    // Direccion del Smartcontract\n    address public contrato;\n\n    // Contructor\n    constructor() public {\n        // Se crean los tokens que se utilizaran en la app se pueden incrementar con el metodo increaseSupply()\n        token = new ERC20Basic(10000);\n        // pasamos a la variable owner la direccion del due単o del contrato\n        owner = msg.sender;\n        // pasamos a la variable contrato la direccion del contrato inteligente\n        contrato = address(this);\n    }\n\n    //Obtenemos la direccion del due単o del contrato\n    function getOwner() public view returns(address){\n        return owner;\n    }\n\n    //Obtenemos la direccion del Smart Contract\n    function getContract() public view returns(address) {\n        return contrato;\n    }\n\n    // Establecer el precio de un token\n    function PercioTokens(uint _numTokens) internal pure returns (uint256) {\n        //Conversion de tokens a ethers: 1 token -> 1 ether\n        return _numTokens*(1 ether);\n    }\n\n    // Compramos tokens mediante direccion de destino y cantidad de tokens a comprar\n    function send_tokens(address _destinatario, uint256 _numTokens) public payable {\n        // se requiere que la cantidad de tokens a transferir no sea mayor a 10\n        require(_numTokens <= 10, \"La cantidad de tokens es demasiado alta\");\n        // Estabecer el precio de los tokens\n        uint256 coste = PercioTokens(_numTokens);\n        // Se evalua la cantodad de ethers paga el cliente\n        require(msg.value >= coste, \"Compra menos tokens o paga con mas ethers\");\n        // <diferencia de lo que el cliente paga\n        uint256 returnValue = msg.value - coste;\n        // Retorna la cantidad de tokens deterinada\n        msg.sender.transfer(returnValue);\n        // Obtener el balance de tokens disponibles\n        uint256 Balance = balance_total();\n        // Se requiere que los tokens que se vayan a comprar esten disponibles en el contrato\n        require(_numTokens <= Balance, \"Compra un numero menor de tokens\");\n        // Se genera la transferencia desde el contrato del ERC20\n        token.transfer(_destinatario, _numTokens);\n    }\n\n    // Generacion de tokens al contrato\n    function GeneraTokens(uint256 _numTokens) public onlyByOwner() {\n        // Llamamos la funcion del contrato ERC20 para incrementar la cantidad de tokens del contrato\n        token.increaseTotalSupply(_numTokens);\n    }\n\n    // Modificador que permite la ejecucion solo por el owner\n    modifier onlyByOwner() {\n        // se requiere que el due単o seq quein ejecute la fucncion\n        require(msg.sender == owner, \"No tienes permisos para ejecutar esta funcion\");\n        _;\n    }\n\n    // >Obtenermos el balance de tokens de una direcccion especificada por parametro\n    function balance_direccion( address _direccion) public view returns(uint256) {\n        // regresamos la cantidad de tokens de una direccion con el metodo del contrato ERC20\n        return token.balanceOf(_direccion);\n    }\n\n    // Obtenemos el balance de tokens total del smart contract\n    function balance_total() public view returns(uint256) {\n        // regresamos el total de los tokens del smartcontract con la funcion totalSupply del contrato ERC20\n        return token.balanceOf(contrato);\n    }\n\n    \n\n\n}",
  "sourcePath": "/home/ograciano/git/BlockchainDapps/Bloque 5 ERC20/ERC20Dapp/src/contracts/Main.sol",
  "compiler": {
    "name": "solc",
    "version": "0.6.8+commit.0bbfe453.Emscripten.clang"
  },
  "schemaVersion": "3.4.4",
  "updatedAt": "2022-02-18T20:12:27.450Z",
  "networkType": "ethereum",
  "devdoc": {
    "methods": {}
  },
  "userdoc": {
    "methods": {}
  }
}