{
  "contractName": "Oracle",
  "abi": [
    {
      "inputs": [],
      "stateMutability": "nonpayable",
      "type": "constructor"
    },
    {
      "anonymous": false,
      "inputs": [],
      "name": "__callbackNewData",
      "type": "event"
    },
    {
      "inputs": [],
      "name": "numberAsteroids",
      "outputs": [
        {
          "internalType": "uint256",
          "name": "",
          "type": "uint256"
        }
      ],
      "stateMutability": "view",
      "type": "function",
      "constant": true
    },
    {
      "inputs": [],
      "name": "update",
      "outputs": [],
      "stateMutability": "nonpayable",
      "type": "function"
    },
    {
      "inputs": [
        {
          "internalType": "uint256",
          "name": "_num",
          "type": "uint256"
        }
      ],
      "name": "setNumberAsteroids",
      "outputs": [],
      "stateMutability": "nonpayable",
      "type": "function"
    }
  ],
  "bytecode": "0x608060405234801561001057600080fd5b50336000806101000a81548173ffffffffffffffffffffffffffffffffffffffff021916908373ffffffffffffffffffffffffffffffffffffffff160217905550610314806100606000396000f3fe608060405234801561001057600080fd5b50600436106100415760003560e01c8063402bc6bb14610046578063829400cb14610062578063a2e6204514610080575b600080fd5b610060600480360381019061005b91906101f9565b61008a565b005b61006a610122565b6040516100779190610291565b60405180910390f35b610088610128565b005b3373ffffffffffffffffffffffffffffffffffffffff1660008054906101000a900473ffffffffffffffffffffffffffffffffffffffff1673ffffffffffffffffffffffffffffffffffffffff1614610118576040517f08c379a000000000000000000000000000000000000000000000000000000000815260040161010f90610271565b60405180910390fd5b8060018190555050565b60015481565b3373ffffffffffffffffffffffffffffffffffffffff1660008054906101000a900473ffffffffffffffffffffffffffffffffffffffff1673ffffffffffffffffffffffffffffffffffffffff16146101b6576040517f08c379a00000000000000000000000000000000000000000000000000000000081526004016101ad90610271565b60405180910390fd5b7f2bfb84d8e96bf2a06daf6ebca52197c6c24fcd7c9c9c1f434c3bc9e59a92f1c160405160405180910390a1565b6000813590506101f3816102c7565b92915050565b60006020828403121561020b57600080fd5b6000610219848285016101e4565b91505092915050565b600061022f600a836102ac565b91507f4f6e6c79204f776e6572000000000000000000000000000000000000000000006000830152602082019050919050565b61026b816102bd565b82525050565b6000602082019050818103600083015261028a81610222565b9050919050565b60006020820190506102a66000830184610262565b92915050565b600082825260208201905092915050565b6000819050919050565b6102d0816102bd565b81146102db57600080fd5b5056fea2646970667358221220714eb226c4bd97e6f112777c19761fa20855d7f808e71fcc360d76fd1a717b1364736f6c63430008000033",
  "immutableReferences": {},
  "source": "// https://api.nasa.gov/neo/rest/v1/feed?start_date=START_DATE&end_date=END_DATE&api_key=API_KEY\n// SPDX-License-Identifier: MIT\npragma solidity ^0.8.0;\n// pragma solidity >=0.4.4 < 0.7.0;\npragma experimental ABIEncoderV2;\n\ncontract Oracle {\n\n    // Diracion del owner\n    address owner;\n\n    // Numero de asteroides\n    uint public numberAsteroids;\n\n    //Evento que recibe datos del oraculo\n    event __callbackNewData();\n\n    // Constuctor\n    constructor() public {\n        owner = msg.sender;\n    }\n\n    // Restriccion de la ejecucion de las funciones\n    modifier onlyOwner() {\n        require(owner == msg.sender, \"Only Owner\");\n        _;\n    }\n\n    // Recibe datos del oraculo\n    function update() public onlyOwner {\n        emit __callbackNewData();\n    }\n\n    // Funcion para configuracion manual del umero de asteroides\n    function setNumberAsteroids(uint _num) public onlyOwner {\n        numberAsteroids = _num;\n    }\n}",
  "sourcePath": "/home/ograciano/git/BlockchainDapps/Bloque 3 Oraculos/Oracle/contracts/Oracle.sol",
  "compiler": {
    "name": "solc",
    "version": "0.8.0+commit.c7dfd78e.Emscripten.clang"
  },
  "schemaVersion": "3.4.4",
  "updatedAt": "2022-02-03T14:27:52.326Z",
  "networkType": "ethereum",
  "devdoc": {
    "kind": "dev",
    "methods": {},
    "version": 1
  },
  "userdoc": {
    "kind": "user",
    "methods": {},
    "version": 1
  }
}